:020000040800F2
:100000005007002035020008DF2B0008292B0008CC
:10001000DD2B0008611B0008E12E00080000000035
:10002000000000000000000000000000E32B0008BA
:10003000A71B000800000000E12B0008E52B0008CA
:100040004F0200084F0200084F0200084F0200084C
:100050004F0200084F0200084F0200084F0200083C
:100060004F0200084F0200084F0200084F0200082C
:100070004F0200084F020008651B0008711B0008B2
:100080004F0200084F0200084F0200084F0200080C
:100090004F0200084F0200084F0200084F020008FC
:1000A0004F0200084F0200084F0200084F020008EC
:1000B0004F0200084F0200084F0200084F020008DC
:1000C0004F0200084F0200084F0200084F020008CC
:1000D0004F020008D52E00084F0200084F0200080A
:1000E0004F0200084F0200084F02000800F002F81B
:1000F00000F090F80AA090E8000C82448344AAF132
:100100000107DA4501D100F085F8AFF2090EBAE82F
:100110000F0013F0010F18BFFB1A43F0010318473B
:100120001833000038330000103A24BF78C878C173
:10013000FAD8520724BF30C830C144BF04680C60ED
:10014000704700000023002400250026103A28BF35
:1001500078C1FBD8520728BF30C148BF0B60704739
:100160006E2900F06981702900F0B382662903F0DE
:10017000CC80652903F0C980672903F0C680612916
:1001800003F0C58003681B0A28BF41F0800169297C
:1001900000F01681642900F01381752900F01081A8
:1001A0006F2900F04082782900F07F82E92900F071
:1001B000DB81E42900F0D881F52900F0D581EF2911
:1001C00000F03D82F82900F07E820368DB0928BF39
:1001D00041F08001632900F08587732900F08A8748
:1001E000E32900F09587F32900F09A8700207047F3
:1001F0001FB500F0E7FF04000020002102F01AFF05
:10020000401C60600020002102F0FEFEE0601FBD87
:1002100010B510BD00F0A9FF1146FFF7E9FF02F08D
:10022000A1FE01F085F803B4FFF7F2FF03BC01F073
:1002300089F800000948804709480047FEE7FEE7C3
:10024000FEE7FEE7FEE7FEE7FEE7FEE7FEE7FEE786
:1002500004480549054A064B70470000472C000832
:10026000ED0000085001002050070020500300203E
:10027000500300207CB51D4616460C00009001D0AE
:100280002044401E074B7B442A4669460190304675
:1002900000F0EBF805461CB10020694600F0F8F8C4
:1002A00028467CBD110200004FF0000200B5134645
:1002B00094469646203922BFA0E80C50A0E80C5086
:1002C000B1F12001BFF4F7AF090728BFA0E80C5037
:1002D00048BF0CC05DF804EB890028BF40F8042B30
:1002E00008BF704748BF20F8022B11F0804F18BF9D
:1002F00000F8012B704770477047704770B504468F
:1003000085690068C10601D5302600E02026C007B7
:1003100007D070BDD4E9012130469047206A401CC7
:1003200020626D1EF6D570BD70B5044685690078F3
:10033000C00707D170BDD4E9012120209047206A71
:10034000401C20626D1EF6D570BD09684A0501D5B6
:1003500040B27047C905FCD500B2704709684A052C
:1003600001D5C0B27047C905FCD580B2704770B5E1
:100370000C460546012A05D02878800600D5EA6992
:10038000002302E0012305E05B1C934202D2E05C03
:100390000028F9D1A869E618C01AA861286A18448B
:1003A00028622846FFF7AAFF04E0D5E9012114F8E6
:1003B000010B9047B442F8D32846FFF7B5FF70BD54
:1003C0002DE9F0410646002410687529314616A52E
:1003D00010D0FFF7BAFF002802DA404213A507E069
:1003E00031688A0701D512A502E0490704D511A595
:1003F000012401E0FFF7B2FF00210A2206F12407E1
:1004000009E0B0FBF2FCB0FBF2F302FB1C00303061
:1004100078541846491C0028F3D123462A46304612
:10042000BDE8F04100F06DBA000000002D000000B2
:100430002B0000002000000011680268006A5305CC
:1004400001D508700AE0D30501D5088006E013063F
:1004500003D5C217C1E9000200E00860012070471F
:1004600001694A1C02610878704700B58FB0CDE978
:1004700001310021059105497944CDE90310114668
:10048000684600F031F90FB000BD0000E5FFFFFF46
:100490000A6802F8010B0A607047D1E900239A420A
:1004A00002D2531C0B601070704700002DE9FF5FF3
:1004B00015468A460446DFF8AC80F8440027D8E9A0
:1004C00000103E46CDE9001010E03AF816106A46DA
:1004D00002A800F029FE411C07D02178890603D527
:1004E000E269391891420DD80744761C20788006BD
:1004F00002D5E069B84205DDAE42E6DB3AF8160007
:100500000028E2D1A069C01BA0612046FFF7F6FEDB
:10051000D8E90010CDE90010002017E03AF81810D3
:100520006A4602A800F000FEB0F1FF3F81460BD002
:1005300000250DF1080B05E0D4E901211BF80500A9
:1005400090476D1C4D45F7D308F10100B04280463D
:10055000E4DB206A384420622046FFF7E5FEBDE870
:10056000FF9F00007E2E00002DE9F0418046D21D45
:1005700022F007020025D2E90002F52915A614D0C1
:10058000011E72F1000106DA0023D0EB030063EBD9
:10059000020211A608E0D8F800108B0701D50FA6BB
:1005A00002E0490701D50EA601251146002408F1F5
:1005B000240704E000F060F930323A55641C50EA38
:1005C0000102F7D12B46324621464046BDE8F041B4
:1005D00000F097B9000000002D0000002B00000083
:1005E0002000000030B4002100F1240408E002F0F3
:1005F0000705D208303542EA4372DB086554491CCE
:1006000052EA0305F3D10468002310A2250707D599
:10061000A40600D421B1C46901230DA2641EC461E3
:1006200030BC00F06EB910B5044621461068FFF7E3
:1006300095FE02462046BDE810400023D2E7D21DB9
:1006400022F00701D1E90023CCE700000000000000
:1006500030000000F0B40D460188090502D5214C98
:100660007C4402E01F4C7C440E34002100F124063F
:1006700008E002F00F071209E75D42EA03721B0966
:100680007754491C52EA0307F3D10278002312077A
:1006900004D5702D06D009B1022311342246F0BCD6
:1006A00000F02FB901231034F8E770B504460D4669
:1006B00021461068FFF752FE024629462046BDE853
:1006C00070400023C6E7D21D22F00703D3E90023C0
:1006D000C0E70368126843F0200303600823C36186
:1006E0000023B7E7E02C00002DE9F05F89460446BF
:1006F0004FF0000ADFF874B1FB44C0F820A0204698
:10070000E1688847002874D0252806D0D4E9012163
:100710009047206A401C2062F1E700265F46204691
:10072000E16888472028054607DB312D05D2781976
:1007300010F8200C08B10643F1E7B00701D526F008
:100740000406C4F81CA00027C4F818A02A2D09D05C
:10075000284602F0FFFB38B304EB8708303DC8F8A9
:10076000185019E059F8041B204604EB87029161E8
:10077000E1688847012F054618D1E069002820DA92
:1007800026F020061DE0D8F8180000EB800005EBED
:1007900040003038C8F818002046E1688847054610
:1007A00002F0D8FB0028EED1012F0AD02E2D08D15F
:1007B0002046E16888477F1C0546022F46F0200648
:1007C000C4DBA069002803DA404246F00106A061BC
:1007D000F00701D026F010066C2D0BD0682D09D043
:1007E0004C2D39D06A2D35D0742D35D07A2D33D09B
:1007F00016E038E0E1682F4620468847B8420546B3
:1008000009D16C2F26D04FF48060E1680643204662
:100810008847054604E06C2F1AD04FF480700643D9
:100820000DB3A5F14100192802D8203546F4006621
:100830004A462946204626604E46FFF791FC80B185
:1008400001280BD0F61D26F0070000F1080956E735
:100850004020E4E78020D8E70020D6E706F104092D
:100860004DE7284652E7206ABDE8F09F702C000053
:1008700000487047EC00002030B5B0F10A024FEAA2
:10088000900E71F100034EEA817EB0EB0E0061EB39
:1008900091014FEA101E4EEA017E10EB0E0041EB73
:1008A00011114FEA102E4EEA016E10EB0E0041EBD3
:1008B00011214FEA104E4EEA014E10EB0E0041EBB3
:1008C0001141401841F100014FEAD00040EA417067
:1008D0004FEAD10110EB80054FEA810444EA90749D
:1008E00044EB01046D1944EB0404521BA3414FF087
:1008F000000348BF0A3200D530BD401C41F1000161
:1009000030BD2DE9F0470D4699469246044600F168
:1009100024080168880604D5E06921F010012160EF
:1009200000E00120A84201DD471B00E00027A1698B
:100930007A1902EB0900081AA0612078C00602D4D7
:100940002046FFF7DBFC002608E0D4E901211AF875
:1009500006009047206A401C761C20624E45F4DB5E
:100960002078C0060AD52046FFF7C8FC06E0D4E987
:10097000012130209047206A401C2062381EA7F1D8
:100980000107F4DC07E0D4E9012118F805009047DD
:10099000206A401C2062281EA5F10105F3DC2046D8
:1009A000FFF7C2FC2078000602D50220BDE8F087E0
:1009B0000120FBE770472DE9FF4F0C461E464FF024
:1009C000FF378BB0D2E90001DDF860800A908A46DB
:1009D000C1F30A5505B93D46002108464FF0000015
:1009E000BAF1000F00F4400005DA00EB80004FF48C
:1009F000400101EA50004FEA9059B9F1010F00DDC2
:100A0000B9460A9850EA4A000ED044F61050A5F2B2
:100A1000FF3545432F14B8F1000F1ED07542291E33
:100A20001EDDC9F100021CE0B8F1010F4FF000001B
:100A300001D0302103E0F24305E02154401CB042D4
:100A4000FBDB30460022002121540B99C1F80880BD
:100A5000C1E900200FB0BDE8F08FBD1B6D1CDEE7C3
:100A60004A4600DA694206A800F0F0FB06AB93E8BC
:100A7000070003AB83E8070050460A9900F0A8FC82
:100A80008DE80700A0F500501F3800900398002D56
:100A90000ADD42F21F014A460844002303A90390DD
:100AA000684600F011FF09E0A0F500504A461F38E3
:100AB000002303A90390684600F01BFF8DE80700A0
:100AC0000004000C03D04FF0FF30410800E0104656
:100AD000B8F1000F03D00022009215461EE0751EEB
:100AE00005D4FFF7C9FE303262556D1EF9D5B34605
:100AF0000122084302D000227F1C04E02078302825
:100B000001D100227F1E002A099784D01DE0112DFB
:100B100007DAFFF7B1FE303262556D1C50EA010270
:100B2000F5D1084302D00098C8B10EE00021681E3C
:100B300005E0235C625C63542254401E491C8142E0
:100B4000F7DBAB46A81B401E0990002004F80B0001
:100B50000B98099AC0F80880C0E9002B7AE71126A3
:100B60004FF0000857E72DE9F04F88460446D21DA4
:100B700022F0070191B0D1E90001CDE90A0102F0AC
:100B8000C5F902460B98C00F01D02D2007E0206860
:100B9000810701D52B2002E0202101EAC000032AB1
:100BA000099001D0072A05DB03464146204600F0A4
:100BB0000DFB0BE12078800601D5E06900E00620FE
:100BC000B8F1650F814606D0B8F1660F18D0B8F1BC
:100BD000670F70D131E00020B9F1110F009001DBF7
:100BE000112301E009F101030AAA01A90CA8FFF7EA
:100BF000E2FEDDE90C70002609F10105834647E0BD
:100C000001204B4600904FF000470AAA01A90CA80A
:100C1000FFF7D1FEDDE90DB00C995D46002610B955
:100C200009F101000D18B9EB050003D4C0F1FF363E
:100C300009F10105A5EB09002BE0B9F1010F01DA7B
:100C40004FF001090020B9F1110F0090484601DD75
:100C5000112300E003460AAA01A90CA8FFF7ABFE86
:100C6000DDE90C704D4600268346207800070AD443
:100C7000AB4500DA5D4601A8012D04DD411911F8EC
:100C8000011C302907D04F4502DA17F1040F04DAAE
:100C9000012082460FE06D1EEEE7002F02DCED1B07
:100CA0003E4403E0781CA84200DD7D1CB81B00F127
:100CB000010A4FF000472078000703D4AA4501DB62
:100CC0004FF0FF3A0021B7F1004F0DF143088DF8C6
:100CD000431024D002202B23002F01DA7F422D2342
:100CE0000A21021EA0F1010000DC5FB197FBF1FCBC
:100CF00097FBF1F201FB1C7C17460CF1300C08F855
:100D000001CDEEE7A8F1010003702188090501D5A6
:100D1000452100E06521A0F1010800F8011C0998B7
:100D20000FA9A1EB0807FF1D00B10120411901EB3C
:100D3000EA70A1693844081A401EA0612078C006F4
:100D400002D42046FFF7DAFA099828B1D4E9012144
:100D50009047206A401C20622078C00622D5204699
:100D6000FFF7CCFA1EE0002E04DBB34502DD01A83C
:100D7000805D00E03020D4E901219047206A401CCA
:100D80002062761CAAF101005FEA000A0AD100F095
:100D900019FAC0680168405CD4E901219047206AD3
:100DA000401C2062281EA5F10105DCDC07E0D4E927
:100DB000012118F8010B9047206A401C2062381E60
:100DC000A7F10107F3DC2046FFF7AEFA032011B0CC
:100DD00041E600002DE9F04F04460D46D21D22F0F9
:100DE000070089B0D0E900974846394602F08EF8EE
:100DF0000246F80F01D02D2307E02068810701D5B6
:100E00002B2302E0202101EAC0038DF820300BB132
:100E1000012000E00020032A824601D0072A04DBDB
:100E20002946204600F0D2F93FE12078800601D41F
:100E30000D2500E0E569C7F30A560D2D49DA0021BA
:100E40004FEA175B08464FF00000002F00F4400007
:100E500007DA00EB80004FF4400100EBD07001EAAC
:100E600060008115012901DD4FF0FF3100224FEABA
:100E7000850CBCF1180F06D31346ACF118004FF0E7
:100E80008052C24003E04FF4801323FA0CF30CF1BC
:100E90000C0CBCF1200F04D3ACF1200C09FA0CF0BF
:100EA00001E007FA0CF000294FF0004801DD18B905
:100EB0000FE00ED140450CD319EB02095F4121B977
:100EC000404502D19F4329EA0209BBEB175F00D0DE
:100ED000761C2088000502D57B48784402E07A48D9
:100EE0007844193808AA302302F80A30037C0AF142
:100EF0000101002E0AF1020A53546A4602DC4FF047
:100F0000300101E04FF031014FF001088DF8001081
:100F100002D0A6F2FF3603E059EA470100D06B4E3B
:100F2000002D02DC2178090704D54FF002082E219C
:100F30008DF80110C44600210BE0C7F303433F01C5
:100F4000C35C491C6D1E02F80830052908F1010830
:100F500001DA002DF1DC00210CE000EB1973491CD3
:100F60001B786D1E082902F808304FEA091908F1AC
:100F7000010801DA002DF0DC21688B0602D516E0AD
:100F8000A8F10108E04505DD02EB080313F8013C78
:100F9000302BF5D0B8F1000F09DD02EB080313F890
:100FA000013C2E2B03D1090701D4A8F10108002D23
:100FB00005DD3E2102F808106D1E08F10108407C95
:100FC000002E02F8080008F1010804DA2D2076420C
:100FD00002F8080002E02B2002F808000A214FF472
:100FE0007A70864208F101080BDB96FBF0F3303390
:100FF00002F8083096FBF0F308F1010800FB1366D5
:1010000001E0642E0CDB642096FBF0F3303302F831
:10101000083096FBF0F308F1010800FB136601E0CD
:101020000A2E06DB96FBF1F0303002F8080008F1DA
:10103000010896FBF1F001FB1060303002F8080067
:10104000A16908F1010808EB050202EB0A00081A81
:10105000A0612078C00602D42046FFF74FF9216A2C
:1010600008AE01EB0A00206204E0D4E9012116F881
:10107000010B9047BAF1010AF7D22078C00602D5D9
:101080002046FFF73BF96E4609E016F8010B3E28B3
:101090000FD0D4E901219047206A401C2062B8F1AA
:1010A0000108F2D22046FFF73FF909B00320BDE85E
:1010B000F08F206A2844206203E0D4E90121302027
:1010C00090476D1EEBD3F8E7B224000002FCFFFF4F
:1010D00010B5436913B1AFF3008001E0FFF747F9A2
:1010E000012010BD127800F124010A7000224A701C
:1010F0000122EDE711684FF0FF32E9E710B54369CF
:1011000013B1AFF3008001E0FFF7D0F9012010BD6B
:10111000128800F1240182840022C2840122EDE7BA
:1011200011684FF0FF32E9E770B516460C460546E8
:1011300000F040F8036893F80101012806D0FF2C65
:101140000FD8185D68B101202C7070BDD3F807016D
:101150003246214603F2071303442846BDE8704097
:1011600018474FF0FF3070BD70477546FFF780FBA2
:10117000AE4605006946534620F00700854618B084
:1011800020B5FFF765F8BDE820404FF000064FF0AE
:1011900000074FF000084FF0000B21F00701AC46AC
:1011A000ACE8C009ACE8C009ACE8C009ACE8C009CB
:1011B0008D46704710B500F005F8001D10BD00BF4A
:1011C000751E0000004870470C0100202DE9F04119
:1011D0001F46044603260168072A01F4006004DB69
:1011E00008B116A505E016A503E008B115A500E0B5
:1011F00015A521F010002060A069C01EA0610FB1EC
:10120000401EA0612046FFF779F84FB1D4E90121D3
:1012100038469047206A401C2062C01C206206E0CD
:10122000206AFAE7D4E9012115F8010B9047761EF0
:10123000F8D22046FFF778F8BDE8F0814E414E0025
:101240006E616E00494E4600696E66002DE9F047FA
:10125000814616468AB0354878440DC88DE80D00A1
:1012600032487844801C03AC0DC884E80D0041F678
:101270009B300844372190FBF1F290FBF1F5A5F18A
:10128000800501FB12041B3C02D56442012000E0F2
:101290000020DFF898A080460027FA44AAF1BE0A91
:1012A0000EE0E0070AD03246684607EB470101230B
:1012B0000AEB810100F01DFB8DE8070064107F1C24
:1012C000002CEED1194F7F44AE3F19E0E80715D04E
:1012D00007EB04100DF1180A90E80E008AE80E00E2
:1012E000C068F04201D1981908903246012306A93E
:1012F00003A800F0FEFA03AB83E807006D10641C3E
:10130000002DE3D14FF0010332466946B8F1000FDA
:1013100003A802D000F0D8FA01E000F0EAFAC9E927
:101320000001C9F808200AB0BDE8F087C421000018
:1013300010B50446AFF300802046BDE81040FEF72C
:1013400072BF000001491820ABBEFEE72600020074
:101350004FF0013C50F8042B51F8043B9A4221D144
:10136000A2EB0C03934313EACC1317D150F8042BD0
:1013700051F8043B9A4215D1A2EB0C03934313EAB4
:10138000CC130BD150F8042B51F8043B9A4209D1ED
:10139000A2EB0C03934313EACC13DBD04FF0000015
:1013A000704700BFD01A01BAB1FA81F101F01801FB
:1013B00022FA01F0CB40C1F12001DBB2C0B2C01A69
:1013C0002CFA01F3D11A914311EAC311E6D1704707
:1013D0005FEA400C08BF91F0000F4FEA8C234FEA00
:1013E000C12243EA51514FEA1C5018BF00F5F040AA
:1013F0004FEA300018BF41F000415FEA6C5C00F03A
:101400002980BCF1FF3F08BF40F080407047130CBB
:1014100006BF12044FF0100C4FF0000C130E04BF67
:1014200012020CF1080C130F04BF12010CF1040C92
:10143000930F04BF92000CF1020CD30F04BF5200B3
:101440000CF1010C11464FF00002A0F11F00A0EBBF
:101450000C00704711F0004F08BF704731F0004199
:101460003FF4D5AF0B0C06BF09044FF0100C4FF042
:10147000000C0B0E04BF09020CF1080C0B0F04BF8B
:1014800009010CF1040C8B0F04BF89000CF1020C54
:10149000CB0F04BF49000CF1010CCCF12003A0EBF1
:1014A0000C0022FA03F302FA0CF241EA030100F104
:1014B0000100704720F07F4C80EA030023F07F4753
:1014C000ACEB070303F57C5300F0004003F1FF038E
:1014D0002DE980494FEA154B09B44FEA144325EA38
:1014E0000B4E24EA03480FF2042606EB13274908A3
:1014F0003E785FEA320203FB0667C7F5000707FB89
:1015000006F64FEA54374FEAD64606F1020607FBC5
:10151000066CCCF1005C4FEA1C472CEA074C07FB39
:1015200006F40CFB06F504EB15464FEA961634BF9D
:1015300000204FF000404FEAD13706FB07FC4FEA8E
:101540001C4C0CFB0BF7D21B03FB0CF761EB0701E8
:101550000CFB0EF7B0EB074072EB17420CFB08F7E1
:1015600034BFA2EB0742B2EB074261EB17414FEAEF
:101570000C444FEA910706FB07FC4FEA1C4C0CFB9E
:101580000BF7B0EBC74072EB573203FB0CF734BFDD
:10159000A2EBC742B2EBC74261EB57310CFB0EF72F
:1015A000B0EBC70072EB57720CFB08F734BFA2EB2D
:1015B000C702B2EBC70261EB5771039F4FEA81612B
:1015C00041EA921104EBCC044FEAD1374FEA826230
:1015D00006FB07FC42EA90124FEA80604FEA1C4C7F
:1015E0000CFB0BF7D21B03FB0CF761EB07010CFBA9
:1015F0000EF7B0EB074072EB17420CFB08F734BF55
:10160000A2EB0742B2EB074261EB17414FEA8C5560
:101610004FEA910704EB9C2406FB07FC4FEA1C4CA5
:101620000CFB0BF7B0EBC74072EB573203FB0CF728
:1016300034BFA2EBC742B2EBC74261EB57310CFBA0
:101640000EF7B0EBC70072EB57720CFB08F734BF14
:10165000A2EBC702B2EBC70261EB577115EB4C2549
:101660004FEA816141EA92114FEA82624FEAD13733
:1016700042EA901206FB07FC44F100044FEA806046
:101680004FEA1C4C0CFB0BF7D21B03FB0CF761EB76
:1016900007010CFB0EF7B0EB074072EB17420CFB97
:1016A00008F734BFA2EB0742B2EB074261EB1741E8
:1016B00015EB1C154FEA813141EA92414FEA823223
:1016C00042EA90424FEA80304FEA0C7644F100043F
:1016D00048EA03434EEA0B484FF0000EB2EB080C09
:1016E00071EB030724BF624639464EEB0E0E4FF0F6
:1016F000000B0018524149414BEB0B0BB2EB080CAD
:1017000071EB03077BF1000B24BF624639464EEBB9
:101710000E0E4FF0000B0018524149414BEB0B0BE2
:10172000B2EB080C71EB03077BF1000B24BF6246A0
:1017300039464EEB0E0E51EA020718BF46F001067D
:1017400016EB0E7655F1000254F1000103D5BDE809
:101750008901BDE80088BDE88901BDE80048B619E7
:10176000524141EB0101A3F10103704780807F7E6C
:101770007D7C7B7A79787776767574737271717007
:101780006F6E6E6D6C6C6B6A6A69686867666665B9
:101790006464636362616160605F5F5E5E5D5D5C47
:1017A0005C5B5B5A5A5959585857575656555555B8
:1017B0005454535352525251515050504F4F4F4E18
:1017C0004E4D4D4D4C4C4C4B4B4B4A4A4A49494966
:1017D00048484847474747464646454545444444A8
:1017E000444343434342424242414141002B9C46D1
:1017F00030D477002BD01CB54FEA370703B44FF035
:1018000010004FF01001BAF1000F06D0BCF1000F2C
:10181000DCBF40F0080040F008014FF000000FBCB2
:10182000BDE810400BF1010BBBF1010F08BF5FEAEF
:10183000170722BF12F1010211F101014FF000411F
:1018400043F1000300F0004043EA00007047F9D381
:101850005708D0E746EA064613F1400F4FEA16460E
:101860001FDD13F1200FDFBF16430A46002120338E
:101870005B42BED0C3F1200746EA064602FA07F7EC
:101880004FEA164646EA0706C3F1200722FA03F29A
:1018900001FA07F721FA03F14FF0000342EA0702C9
:1018A000A7E746EA020646EA06464FEA164646EA31
:1018B0000106BCBF46EA0646360C4FF000034FF067
:1018C00000024FF0000194E72DE9804C9A469346C0
:1018D00070B491E8380007C831EA400C48BF34EAD8
:1018E000430C03D5FFF7E6FDFFF780FFF0BCBDE832
:1018F000008C2DE9804C9A46934670B491E83800EC
:1019000007C810F0804F08BF13F0804F03D100F0DC
:1019100005F8FFF76BFFF0BCBDE8008C20F07F47B7
:1019200080EA030023F07F4C07EB0C03A3F57C5304
:1019300000F00040A3F1FE0392F0000F00F0B3802E
:1019400095F0000F00F077802DE901494FEA114032
:101950004FEA144621EA004800FB06FC24EA064749
:1019600008FB06F607FB08F800FB07F718EB06482C
:101970004CEB164C4FEA124B18EB07484FEA154652
:101980004CEB174022EA0B4E0BFB06FC25EA064700
:101990000EFB06F607FB0EFE0BFB07F71EEB064ED3
:1019A0004CEB164C4FF000061EEB074E4CEB174B62
:1019B00018EB0B0840F1000018EB0E0B58EB000879
:1019C00040F100008F1A4FF000013CBFC943661B75
:1019D00014BFB5EB040C00213CBFC943F61B4FEA12
:1019E00017444EEA8E0E27EA04454FEA1C4704FBD3
:1019F00007622CEA074C05FB07F70CFB05F604FB16
:101A00000CFC16EB074642EB174216EB0C4642EB7A
:101A10001C421BEB060658EB0202414146EA9E06B9
:101A200001D5BDE80189B619524141EB0101A3F18D
:101A30000103BDE801894FEA14454FEA114724EA42
:101A4000054621EA074C05FB07F406FB07F70CFBEC
:101A500006F105FB0CFC11EB074144EB17444FEA80
:101A6000124711EB0C4144EB1C4422EA074C05FBE6
:101A700007F206FB07F70CFB06F605FB0CFC16EB62
:101A8000074642EB174216EB0C4642EB1C456A1820
:101A900054F1000148BF7047B619524141EB0101B2
:101AA000A3F10103704795F0000F37D04FEA1142C0
:101AB0004FEA144721EA024624EA074C02FB07F1E9
:101AC00006FB07F70CFB06F402FB0CFC14EB0744C7
:101AD00041EB17414FEA154714EB0C4441EB1C4115
:101AE00025EA074C02FB07F506FB07F70CFB06F699
:101AF00002FB0CFC16EB074645EB174516EB0C46B4
:101B000045EB1C42121951F1000148BF7047B6194C
:101B1000524141EB0101A3F1010370474FEA144523
:101B20004FEA114724EA054621EA074C05FB07F175
:101B300006FB07F70CFB06F24FF0000605FB0CFC5A
:101B400012EB074241EB174112EB0C4251EB1C41E7
:101B500048BF7047921841EB0101A3F101037047A0
:101B6000FEE70000014800F091B80000A800002046
:101B7000014800F08BB800006400002030B590F8F8
:101B800040500124AC40C56B6C60046863604368DE
:101B9000102B036803D099600068C26030BD9A6062
:101BA0000068C16030BD704772B6FEE710B590F8AE
:101BB00021100022022905D00421816380F8202011
:101BC000012010BD01680B6823F00E030B60016853
:101BD0000B6823F001030B6090F84030C46B0121C7
:101BE00001FA03F3636080F8211080F8202010468A
:101BF00010BD000010B590F821100024022903D078
:101C00000421816301243DE001680A6822F00E028C
:101C10000A6001680A6822F001020A601A4A016833
:101C2000914201D1012121E0174A1432914201D1A0
:101C300010211BE0144A2832914201D1891515E088
:101C4000114A3C32914201D189140FE00E4A5032C0
:101C5000914202D14FF4803108E00B4A6432914244
:101C600002D14FF4801101E04FF08071064A083A2A
:101C70005160012180F82110002180F82010416B73
:101C800001B18847204610BD080002402DE9F05FF1
:101C9000C16B0C6801680B68D0F840C0042202FADE
:101CA0000CF2494DDFF824A1494E4A4FDFF828B124
:101CB000DFF828E122422CD05A072AD50A6892067A
:101CC00003D40A6822F004020A600168A94201D123
:101CD000042219E0514501D1402215E0B14202D160
:101CE0004FF4806210E0B94202D14FF480420BE021
:101CF000594502D14FF4802206E0714502D14FF4DC
:101D0000800201E04FF080622F4908394A60C16AC1
:101D10003BE04FF0020808FA0CF818EA040F4FF005
:101D200000094FF0010235D05FEA837832D50B68A5
:101D30009B0605D40B6823F00A030B6080F8212072
:101D40000168A94201D1022219E0514501D12022A6
:101D500015E0B14202D14FF4007210E0B94202D155
:101D60004FF400520BE0594502D14FF4003206E027
:101D7000714502D14FF4001201E04FF00072124998
:101D800008394A6080F82090816A00291AD0BDE89D
:101D9000F05F0847082505FA0CF5254212D01B070D
:101DA00010D50B6823F00E030B6090F84010C36B46
:101DB00002FA01F15960826380F8212080F82090B6
:101DC000016BE2E7BDE8F09F080002401C00024002
:101DD0003000024044000240580002406C000240C3
:101DE00030B528B308C8134914221944B1FBF2F1E5
:101DF0008900C16310498163022141771A6843F663
:101E0000F0718A43D0E900142143D0E902452C4304
:101E100021430469214344692143846921431143D7
:101E2000196000214163012242770177084630BDE5
:101E3000012030BDF8FFFDBF0000024070B5044630
:101E400090F82000002501280CD0012084F8200003
:101E500094F821600020012E06D084F8200002258D
:101E6000284670BD022070BD022684F82160A06360
:101E70002068066826F0010606602046FFF77EFE11
:101E8000E06A00282068016802D041F00E0106E0F7
:101E900021F0040101602068016841F00A0101603D
:101EA0002068016841F001010160D9E770B504467E
:101EB00000F0FEF80546601C02D004480078044497
:101EC00000F0F6F8401BA042FAD370BD0C000020D1
:101ED0002DE9F84FDFF8B8910024A9F1040B23464F
:101EE0000F2709F1040AABF1040EC9E00125A54052
:101EF0002A40AA427DD1674ED1F804C0ACEB060857
:101F0000B44532D014DCBCF1030F3AD009DCBCF18B
:101F1000000F2AD0BCF1010F1CD0BCF1020F31D14F
:101F20001DE0BCF1110F17D0BCF1120F2AD119E03E
:101F3000B8F5881F19D006DCB8F5803F15D0B8F584
:101F4000801F1FD111E0B8F5001F0ED0B8F5041F97
:101F500018D10AE0CB6815E0CB681B1D12E0CB68F6
:101F600008330FE0CB680C330CE08B682BB1012BEE
:101F70004FF0080303D0456104E0042302E005614B
:101F800000E00023FF2A01D8064601E000F1040624
:101F90004FEA840501D9A5F12005D6F8008007FA9B
:101FA00005FC28EA0C0803FA05F548EA0508C6F816
:101FB00000804D68ED0062D5374DAE6946F00106F0
:101FC000AE61AD6924F0030605F001050095334DBF
:101FD00006EB050CDCF80850A607360F07FA06F8E2
:101FE00025EA0805DFF8B880404503D14FF0000826
:101FF00017E044E0DFF8AC80404502D14FF0010823
:102000000FE0DFF8A480404502D14FF0020808E05D
:10201000DFF89880404502D14FF0030801E04FF00F
:10202000040808FA06F848EA0508CCF808804D6864
:10203000D9F80060ED024D4601D5164300E0964305
:102040002E604D68DAF80060AD02554601D51643A2
:1020500000E096432E604D68DBF80060AD035D46FE
:1020600001D5164300E096432E604D68DEF800600F
:10207000ED03754601D5164300E096432E60641CBF
:102080000D682A46E5407FF431AFBDE8F88F0000C7
:10209000080401400000111000100240000001403F
:1020A00000080140000C01400010014000140140F4
:1020B00001488068704700000C00002002488168D9
:1020C00002781144816070470C000020074810B569
:1020D000016841F010010160032000F075F80F2045
:1020E00000F006F800F024F8002010BD00200240A7
:1020F00070B50D4D04464FF47A712878B1FBF0F0BD
:102100000A490968B1FBF0F000F0DCFA48B9102C7C
:1021100007D200222146501E00F036F800206C60E5
:1021200070BD012070BD00000C00002018000020D0
:102130000C4808B5816941F001018161816901F0B4
:1021400001010091C16941F08051C161C06900F095
:10215000805000900448416821F0E06141F0007136
:10216000416008BD0010024000000140002809DB6A
:1021700000F01F02012191404009800000F1E020A1
:10218000C0F8001170470000F0B40E4B1B680C46FD
:10219000C3F30223C3F10705042D00D90425191D3B
:1021A000072901D2002300E0DB1E012606FA05F113
:1021B000491E214099409E40761E16403143F0BC96
:1021C00000F0B8BE0CED00E0064900F00702086818
:1021D0004FF6FF03184040EA0220034A104308600C
:1021E000704700000CED00E00000FA052DE9F04713
:1021F0000F46050061D0434E306800F00700B8423A
:1022000009D2306820F0070038433060306800F0B1
:102210000700B84251D128683B4C810712D54007CE
:1022200003D5606840F4E06060602878000703D55B
:10223000606840F4605060606068A96820F0F00059
:10224000084360602878C00728D06868012810D04B
:102250002168022810D0890700292EDA616821F050
:10226000030101436160FFF723FF804641F2883993
:102270000DE021688903EFE78901EDE7FFF718FF1B
:10228000A0EB0801494502D90320BDE8F08760684A
:10229000696800F00C00B0EB810FEFD1306800F0FE
:1022A0000700B8420BD9306820F00700384330608F
:1022B000306800F00700B84201D00120E5E7287837
:1022C000400705D56068E96820F4E0600843606075
:1022D0002878000706D56068296920F4605040EA34
:1022E000C100606000F038F86168084AC1F303116A
:1022F000515CC8400649086006480068FFF7F8FED0
:102300000020C2E7002002400010024024330008F1
:1023100018000020100000200448054900684968A2
:10232000044AC1F30221515CC840704718000020E4
:102330000010024034330008044805490068496829
:10234000044AC1F3C221515CC84070471800002004
:1023500000100240343300080E4A51680E4801F064
:102360000C03042B11D0082B0FD10C48C1F383436D
:10237000C903C05C0AD55168084AC1F34041921EA6
:10238000515C054A5043B0FBF1F0704704494843A3
:10239000704700000010024000127A001433000859
:1023A00000093D002DE9F84F040070D02078C04DA1
:1023B000C00749D06868C0F38100012807D0686869
:1023C000C0F38100022809D16868C00306D52868D7
:1023D000800339D560680028E7D035E06068B0F543
:1023E000803F0BD010B1B0F5A02F11D0286820F499
:1023F00080302860286820F4802002E0286840F4BB
:1024000080302860606890B1FFF752FE06460AE00F
:10241000286840F480202860F0E700BFFFF748FEFE
:10242000801B642873D828688003F7D50CE0FFF779
:102430003FFE064605E000BFFFF73AFE801B64281A
:10244000F0D828688003F7D420789A4E80074FF0A0
:1024500001094FF0000839D5686810F00C0F07D05B
:102460006868C0F38100022809D16868C00306D4F7
:102470002868800714D52069012808D110E0206958
:10248000B0B1C6F80090FFF713FE074605E00AE179
:10249000FFF70EFEC01B0228C4D828688007F7D5B6
:1024A0002868616920F0F80040EAC10028600DE06A
:1024B000C6F80080FFF7FCFD074604E0FFF7F8FDD3
:1024C000C01B022823D828688007F7D4207800078B
:1024D0002CD57948A169D9B1C0F80090FFF7E8FD83
:1024E000074604E0FFF7E4FDC01B02280FD8686A26
:1024F0008007F7D571484FF4FA510068B0FBF1F04E
:10250000009000BF0098411E0091FAD20EE080E0DA
:10251000C0F80080FFF7CCFD074604E0FFF7C8FDD8
:10252000C01B022875D8686A8007F7D42078400756
:1025300060D5E8690027C00008D4E86940F0805001
:10254000E861E869012700F0805000905C4801686C
:10255000C90513D40168834641F480710160FFF717
:10256000A7FD824606E000BFFFF7A2FDA0EB0A0030
:1025700064284ED8DBF80000C005F5D5E0680128D6
:102580000AD008B1052813D0286A20F0010028627B
:10259000286A20F0040002E0286A40F00100286266
:1025A000E06841F2883B98B1FFF782FD82460BE07C
:1025B000286A40F004002862EEE700BFFFF778FDCC
:1025C000A0EB0A0159455AD8286A8007F6D50CE0D5
:1025D000FFF76EFD824605E0FFF76AFDA0EB0A01FA
:1025E00059454CD8286A8007F6D41FB1E86920F015
:1025F0008050E861E06988B36968C1F3810102290C
:1026000044D00228C6F8608004D0FFF751FD04468C
:1026100038E034E0FFF74CFD074604E0FFF748FDE3
:10262000C01B02282BD828688001F7D4206AB0F597
:10263000803F05D16868A16820F4003008436860D5
:10264000D4E908010843696821F4741108436860FB
:10265000C6F86090FFF72CFD044606E025E000BFB9
:10266000FFF726FD001B022809D828688001F7D54E
:102670001BE000BFFFF71CFD001B022802D903204E
:10268000BDE8F88F28688001F4D40EE00128F7D067
:102690006868226A00F48031914204D1616A00F4D2
:1026A0007010884201D00120EAE70020E8E700002E
:1026B0000010024000004242800442421800002004
:1026C0000070004010B5401EB0F1807F01D30120A2
:1026D00010BD4FF0E02460610F21601700F02AFC6C
:1026E0000020A06107202061002010BD70477047C6
:1026F000F8B5016804460868CA684B6910F00F0F06
:102700004FF0000559D003F0010602F490773743EB
:1027100065D0C10705D0D10503D5616C41F0010139
:102720006164410705D5D90703D0616C41F002010E
:102730006164810705D5D90703D0616C41F00401BC
:102740006164010707D502F02001314303D0616CB9
:1027500041F008016164616C00293AD0800604D51B
:10276000900602D5204600F0F7FA20684069616CB7
:10277000C0F38010090700D460B3204600F0B7FA18
:1027800020684069400621D52068143050E8001FB9
:1027900021F0400140E80012002AF5D1E06BA8B119
:1027A0006D494163E06BFFF725FA002811D0E06B1B
:1027B000416B01B0BDE8F040084783060FD5930692
:1027C0000DD52046BDE8F84000F0C6BA2046FFF718
:1027D0008EFFF8BD2046FFF78AFF6564F8BD266BC3
:1027E0002023012E7CD1C6067AD5D60678D5086876
:1027F0004868009048694FF00206400640D5E16BFA
:10280000086840680004000CE8D0A28D8242E5D937
:10281000E085886920282DD020680C3050E8001F02
:1028200021F4807140E80012002AF5D120681430AC
:1028300050E8001F21F0010140E80012002AF5D104
:102840002068143050E8001F21F0400140E80012D9
:10285000002AF5D184F84230256320680C3050E816
:10286000001F21F0100140E80012002AF5D1E06BB2
:10287000FFF79CF96663A08DE18D401A81B22AE0D2
:10288000A08DE18D401A81B2E08D0028A6D00029EC
:10289000A4D022680C3252E8000F20F4907042E875
:1028A0000007002FF5D12068143050E8002F22F0E7
:1028B000010240E80027002FF5D184F8423025635B
:1028C00020680C3050E8002F22F0100240E800236E
:1028D000002BF5D166632046FFF708FFF8BDFFE740
:1028E00005062BD5150629D594F841002128F5D1E8
:1028F000A068B0F5805F01D12069B0B1206A411CA9
:102900002162216800784860E08C401E0004000CC1
:10291000E084E3D12068C16821F08001C1602068B3
:10292000C16841F04001C160D8E7206A0088C0F367
:1029300008004860206A801C2062E5E74006CDD58B
:102940005006CBD5CA68204622F04002CA6084F8FF
:10295000413000F0E7F8C1E7492C000870B50400E9
:1029600004D094F84100002510B106E0012070BDAC
:1029700084F84050204600F023F8242084F84100D9
:102980002068C16821F40051C160204600F046FA79
:102990002068016921F4904101612068416921F0BA
:1029A0002A0141612068C16841F40051C160656439
:1029B000202084F8410084F842006563002070BD47
:1029C000F0B585B000240646009401940294039467
:1029D00000682F49884259D12E48816941F48041CD
:1029E0008161816901F480410491816941F00801AC
:1029F00081618069284D00F008000490402000901B
:102A0000022001900320039069462846FFF760FAF0
:102A10008027CDE90074694628460294FFF758FAEA
:102A20001E48416841F0E06141F0040141601D4DE4
:102A30001B48C5E90004C5E902472C616C61AC6123
:102A40002846EC61FFF7CCF908B1FFF7ADF8F56364
:102A50006E62144D12484435143801C5102091C5DA
:102A6000104845F8104944306C61AC61EC61FFF7E7
:102A7000B7F908B1FFF798F8B56300221146252091
:102A80006E62FFF781FB2520FFF770FB05B0F0BDFC
:102A90000038014000100240000C014000000140DD
:102AA00058000240640000207047000070B50446E2
:102AB00090F84100202801D0022070BD49B342B3F4
:102AC0002162A284E28400206064212384F84130E2
:102AD000A56B114BAB62A56B104BEB62A56B104B5A
:102AE0002B63A36B5863256813462A1DA06BFFF761
:102AF000A5F921686FF0400008602068143050E8A4
:102B0000001F41F0800140E80012002AF5D10020AA
:102B100070BD012070BD0000A32C0008E52C00084A
:102B2000592C000870477047FEE700000D4808B5B3
:102B3000416941F0010141614069002200F001005A
:102B4000009011460E20FFF71FFB0E20FFF70EFB33
:102B5000002211460F20FFF717FBBDE808400F20A9
:102B6000FFF704BB001002400D4808B5816941F031
:102B700020018161816901F020010091816941F0AA
:102B800004018161816901F004010091816941F0D2
:102B900008018161806900F00800009008BD000014
:102BA000001002400C4810B50A4901604FF4E131B1
:102BB0004160002181600C22C160C0E90412816182
:102BC000C161FFF7CBFE002803D0BDE81040FEF73F
:102BD000EBBF10BD003801401C000020FEE7FEE7FF
:102BE00070477047FFF76ABA30B58FB02821684642
:102BF000FDF75AFB14210AA8FDF756FB0121080432
:102C0000CDE900100024029402250491CDE907507B
:102C10004FF4E01009906846FFF7C4FB08B172B6A4
:102C2000FEE70F20CDE90A054FF48060CDE90C40A6
:102C300002210AA80E94FFF7D9FA002801D072B633
:102C4000FEE70FB030BD704710B5406A0021C18566
:102C5000C184FFF74CFD10BD70B5446A206840691F
:102C600094F84110C0F3C0100025212904D118B1F7
:102C7000E584204600F062F82068406994F842102C
:102C8000C0F38010222904D118B1E585204600F058
:102C90002EF8606C40F0100060642046FFF727FDBE
:102CA00070BD10B50146406A09680968890616D4E6
:102CB0000021C1840168143151E8002F22F0800204
:102CC00041E80023002BF5D101680C3151E8002FB9
:102CD00042F0400241E80023002BF5D110BDFFF780
:102CE00021FF10BD10B5406AFFF71DFF10BD016840
:102CF0000C3151E8002F22F4907241E80023002BA0
:102D0000F5D10168143151E8002F22F0010241E8A9
:102D10000023002BF5D1016B012909D101680C3189
:102D200051E8002F22F0100241E80023002BF5D1DA
:102D3000202180F8421000210163704701680C31A6
:102D400051E8002F22F0C00241E80023002BF5D10A
:102D5000202180F84110704708B590F842102229D0
:102D600001D0022008BD82684FF480539A4201D1FD
:102D7000016921B1816A9A421BD04AB10AE0026816
:102D8000816A5268C2F308020A80816A891C08E0DD
:102D9000026972B10268526802F07F020A70816AA9
:102DA000491C8162C18D491E0904090CC18503D0EB
:102DB0001BE002685268F1E70168CA6822F020024D
:102DC000CA600168CA6822F48072CA6001684A69F0
:102DD00022F001024A61202180F842100021416363
:102DE000026B012A03D0FFF75FFE002008BD0163DC
:102DF00001680C3151E8002F22F0100241E8002355
:102E0000002BF5D101680A68D20602D50A68496824
:102E10000091818DFFF76AFCE7E7000070B504467A
:102E200000680169E26821F44051114301612169A0
:102E3000A0680843616908432168CA6841F20C63CD
:102E40009A430243CA6020684169A26921F4407133
:102E5000114341611E492068884202D1FFF76CFA94
:102E600001E0FFF759FA00EBC00101EB00126068C6
:102E700064218000B2FBF0F3B3FBF1F36FF01806AE
:102E80007343B2FBF0F5B2FBF0F605EB830532239A
:102E900003EB0515B5FBF1F5B6FBF1F605F0F00512
:102EA00005EB0615B2FBF0F6B2FBF0F0B0FBF1F06B
:102EB0006FF01802504306EB800003EB0010B0FBEC
:102EC000F1F0216800F00F002844886070BD000018
:102ED000003801400148FFF70BBC00001C00002037
:102EE000FEE700000FB4642100B599B01BAB684643
:102EF0001A9AFDF7BFF982B269460348FFF7D6FD7B
:102F000019B05DF814FB00001C000020490050EAD5
:102F1000C12018BF04204A0D18BF40F0010040F244
:102F2000FF72B2EB515F08BF40F00200012808BFFA
:102F3000052070470907090E002804DB00F1E02096
:102F400080F80014704700F00F0000F1E02080F8D6
:102F5000141D704730380A2801D201207047002024
:102F6000704700001FB5FFF7B1F8FFF73DFEFFF710
:102F7000FBFDFFF7DBFDFFF715FEDFF86C90DFF8D8
:102F80006CA01B4C4FF07C5BA06800F06FF807460C
:102F90008846606800F06AF805460E46206800F032
:102FA00065F88DE8E00102460B4612A0FFF79AFF94
:102FB0002068484501DD124802E0594600F082F8D9
:102FC00020606068504501D30E4802E0594600F089
:102FD00027F901466060206800F074F8A0600A20BC
:102FE000FEF764FFD0E700000000A04100008080F1
:102FF0000000002025662C25662C25660D0A0000A1
:10300000666636419A994D4210B500290AD0087873
:10301000002807D005487844FEF79AF9002801D027
:10302000002010BD0248784410BD0000420400009A
:103030003A04000010B500290AD00878002807D00B
:1030400005487844FEF784F9002801D0002010BD1F
:103050000248784410BD0000320400002A04000039
:103060000808A0F500114FEA3101704743004FEA0C
:10307000D30C4FEA3C0C43401FBF40070CF160519A
:1030800013F0FE4F70471CF0006F03D100200CF0CE
:10309000004170470CF0004343EA507010B540EA1D
:1030A000CC0000F071F800BF000000924FEA000170
:1030B000FFF7D6BF4FF000414FF00000A1F500210F
:1030C0007047000090EA010F48BF81F0004100F115
:1030D000AE80421A3CBF801A89184FEAD0524FF096
:1030E0007F4C1CEA410FA2EBD15318BF9CEA026F40
:1030F00000F03B804FF0004C4CEA00204CEA0121EC
:1031000021FA03FC10EB0C0C1ED202F1FF325FEA35
:103110001C2040EBC25038BF70471CF07F0F4FEAB5
:10312000400C18BFBCF17F4F38BF7047C3F120037C
:10313000994008BF20F00100BCF17F4F38BF7047B5
:10314000A0F1C04000F066B84FEA3C00000A40EB36
:10315000C25028BF1CF0FF0F4FEA400CE6D018BF4A
:10316000BCF17F4F38BF7047EAE79CEA026F05D099
:1031700010EA5C0F08BF00F00040704710B500F087
:1031800003F800BF64FBBE3E0EF1020E2EF0030EEC
:103190005EF8044B244204D44FEA4102B2F17F4F5F
:1031A00011D84FEA4003B3F17F4F0CD80ED14FEA4C
:1031B000D07CB2F17F4F0CEB4C0C0CF1020C08BF31
:1031C0004CEBD17C04E04FF0080C01E04FEAD17CDD
:1031D0000CEB4C0324FA03F404F00704B4F1040CE0
:1031E00006D20EEB840CBDE810404CF0010C604799
:1031F000DFE80CF0070802024FF00040A0F5800065
:1032000010BD0846420018BFD2F1807288BF00F09E
:10321000004010BDFF2141EAD050C00570470000BA
:1032200090EA010F48BF81F000413FF552AF421ACA
:1032300004D882F00042A0EB020011444FEAD052C1
:103240004FF07F4C1CEA410FA2EBD15318BF9CEA10
:10325000026F4AD04FF0004C4CEA00204CEA0121AA
:1032600021FA03FCB0EB0C0C0FD412F0FE0F36D099
:103270005FEA4C001DD5001240EBC25038BF7047CA
:103280001CF03F0F18BF70470BE0A2F101025FEA8C
:103290001C2040EBC25038BF70471CF07F0F18BF96
:1032A0007047C3F12003994014BF401E20F0010075
:1032B000704780084FEA122308BF7047B0FA80FCBD
:1032C000A2EB0C02CCF1280C60FA0CF093EA122F5E
:1032D00004BF00EBC25070474FEAC3707047130A37
:1032E0005FEADC1008BF7047F6E79CEA026F04D083
:1032F00010EA5C0F08BF0020704710B5FFF744FFCD
:1033000040DFF63E81F000407047FDF72CBCFDF732
:1033100061BD010202030405060708090A0B0C0D32
:103320000E0F101000000000000000000102030456
:103330000607080900000000010203040000000065
:1033400000000000303132333435363738394142ED
:1033500043444546403058003031323334353637F7
:1033600038396162636465664030780004000008A3
:1033700000000000000000020001000010303132A7
:103380003334353637383961626364656678700086
:10339000303132333435363738394142434445468B
:1033A0005850000002400000000000A00000000093
:1033B00005400000000000C8000000000C400000B4
:1033C0000000409C00000000194000000020BCBE2E
:1033D0000000000034400000BFC91B8E0000000444
:1033E000B5400000504BCFD06607E2CF010000008F
:1033F0006C4100003E8251AADFEEA73401000000BC
:10340000D9420000DCB5A0E23A301F97FFFFFFFF72
:10341000B4450000FD25A0C8E9A3C14FFFFFFFFF91
:10342000FF3F00000000008000000000FF3F0000A0
:10343000000000800000000084350008000000202B
:103440001C00000028010008A03500081C00002016
:1034500034070000440100081C0000004300000085
:10346000F8FFFFFF0C0000000E0000000F0000003E
:103470002E0000001001000043000000F8FFFFFFD5
:103480000040404040404040404041414141414077
:10349000404040404040404040404040404040402C
:1034A00040050202020202020202020202020202BB
:1034B00002202020202020202020200202020202C0
:1034C0000202909090909090101010101010101018
:1034D0001010101010101010101010100202020224
:1034E0000202888888888888080808080808080868
:1034F0000808080808080808080808080202020264
:10350000400000000000000000000000000000007B
:1035100000000000000000000000000000000000AB
:10352000000000000000000000000000000000009B
:10353000000000000000000000000000000000008B
:10354000000000000000000000000000000000007B
:10355000000000000000000000000000000000006B
:10356000000000000000000000000000000000005B
:10357000000000000000000000000000000000004B
:1035800000000000666636419A994D420000000036
:103590000100000010000000000000000024F40002
:04000005080000ED02
:00000001FF
